{
  "_format": "hh-sol-artifact-1",
  "contractName": "Dealer",
  "sourceName": "src/L2Contracts/Dealer.sol",
  "abi": [
    {
      "inputs": [
        {
          "internalType": "address",
          "name": "target",
          "type": "address"
        }
      ],
      "name": "AddressEmptyCode",
      "type": "error"
    },
    {
      "inputs": [
        {
          "internalType": "string",
          "name": "reason",
          "type": "string"
        }
      ],
      "name": "AuthenticationFailed",
      "type": "error"
    },
    {
      "inputs": [
        {
          "internalType": "address",
          "name": "implementation",
          "type": "address"
        }
      ],
      "name": "ERC1967InvalidImplementation",
      "type": "error"
    },
    {
      "inputs": [],
      "name": "ERC1967NonPayable",
      "type": "error"
    },
    {
      "inputs": [],
      "name": "FailedCall",
      "type": "error"
    },
    {
      "inputs": [
        {
          "internalType": "string",
          "name": "reason",
          "type": "string"
        }
      ],
      "name": "InvalidChainId",
      "type": "error"
    },
    {
      "inputs": [],
      "name": "InvalidImplementation",
      "type": "error"
    },
    {
      "inputs": [],
      "name": "InvalidInitialization",
      "type": "error"
    },
    {
      "inputs": [
        {
          "internalType": "string",
          "name": "reason",
          "type": "string"
        }
      ],
      "name": "InvalidInteraction",
      "type": "error"
    },
    {
      "inputs": [],
      "name": "NotInitializing",
      "type": "error"
    },
    {
      "inputs": [
        {
          "internalType": "address",
          "name": "owner",
          "type": "address"
        }
      ],
      "name": "OwnableInvalidOwner",
      "type": "error"
    },
    {
      "inputs": [
        {
          "internalType": "address",
          "name": "account",
          "type": "address"
        }
      ],
      "name": "OwnableUnauthorizedAccount",
      "type": "error"
    },
    {
      "inputs": [],
      "name": "ReentrancyGuardReentrantCall",
      "type": "error"
    },
    {
      "inputs": [],
      "name": "UUPSUnauthorizedCallContext",
      "type": "error"
    },
    {
      "inputs": [
        {
          "internalType": "bytes32",
          "name": "slot",
          "type": "bytes32"
        }
      ],
      "name": "UUPSUnsupportedProxiableUUID",
      "type": "error"
    },
    {
      "anonymous": false,
      "inputs": [
        {
          "indexed": false,
          "internalType": "uint256",
          "name": "_amount",
          "type": "uint256"
        }
      ],
      "name": "FundsTransferredToMediator",
      "type": "event"
    },
    {
      "anonymous": false,
      "inputs": [
        {
          "indexed": false,
          "internalType": "uint64",
          "name": "version",
          "type": "uint64"
        }
      ],
      "name": "Initialized",
      "type": "event"
    },
    {
      "anonymous": false,
      "inputs": [
        {
          "indexed": true,
          "internalType": "string",
          "name": "_backendDigest",
          "type": "string"
        },
        {
          "indexed": false,
          "internalType": "bytes32",
          "name": "_jobDigest",
          "type": "bytes32"
        },
        {
          "indexed": true,
          "internalType": "uint256",
          "name": "_chainId",
          "type": "uint256"
        },
        {
          "indexed": false,
          "internalType": "address",
          "name": "_jobCreator",
          "type": "address"
        }
      ],
      "name": "L3Interaction",
      "type": "event"
    },
    {
      "anonymous": false,
      "inputs": [
        {
          "indexed": false,
          "internalType": "bytes32",
          "name": "_jobId",
          "type": "bytes32"
        }
      ],
      "name": "L3JobCompleted",
      "type": "event"
    },
    {
      "anonymous": false,
      "inputs": [
        {
          "indexed": true,
          "internalType": "address",
          "name": "previousOwner",
          "type": "address"
        },
        {
          "indexed": true,
          "internalType": "address",
          "name": "newOwner",
          "type": "address"
        }
      ],
      "name": "OwnershipTransferStarted",
      "type": "event"
    },
    {
      "anonymous": false,
      "inputs": [
        {
          "indexed": true,
          "internalType": "address",
          "name": "previousOwner",
          "type": "address"
        },
        {
          "indexed": true,
          "internalType": "address",
          "name": "newOwner",
          "type": "address"
        }
      ],
      "name": "OwnershipTransferred",
      "type": "event"
    },
    {
      "anonymous": false,
      "inputs": [
        {
          "indexed": true,
          "internalType": "address",
          "name": "implementation",
          "type": "address"
        }
      ],
      "name": "Upgraded",
      "type": "event"
    },
    {
      "inputs": [],
      "name": "UPGRADE_INTERFACE_VERSION",
      "outputs": [
        {
          "internalType": "string",
          "name": "",
          "type": "string"
        }
      ],
      "stateMutability": "view",
      "type": "function"
    },
    {
      "inputs": [],
      "name": "acceptOwnership",
      "outputs": [],
      "stateMutability": "nonpayable",
      "type": "function"
    },
    {
      "inputs": [
        {
          "internalType": "string",
          "name": "_backendDigest",
          "type": "string"
        },
        {
          "internalType": "uint256",
          "name": "_privateChainId",
          "type": "uint256"
        },
        {
          "internalType": "uint256",
          "name": "_totalAmount",
          "type": "uint256"
        }
      ],
      "name": "depositAndExec",
      "outputs": [],
      "stateMutability": "payable",
      "type": "function"
    },
    {
      "inputs": [
        {
          "internalType": "address",
          "name": "_creator",
          "type": "address"
        }
      ],
      "name": "getJobDetails",
      "outputs": [
        {
          "components": [
            {
              "internalType": "enum IDealer.JobStatus",
              "name": "status",
              "type": "uint8"
            },
            {
              "internalType": "bytes32",
              "name": "digest",
              "type": "bytes32"
            },
            {
              "internalType": "uint256",
              "name": "value",
              "type": "uint256"
            }
          ],
          "internalType": "struct IDealer.Job",
          "name": "",
          "type": "tuple"
        }
      ],
      "stateMutability": "view",
      "type": "function"
    },
    {
      "inputs": [
        {
          "internalType": "address",
          "name": "_mediator",
          "type": "address"
        }
      ],
      "name": "initialize",
      "outputs": [],
      "stateMutability": "nonpayable",
      "type": "function"
    },
    {
      "inputs": [],
      "name": "mediator",
      "outputs": [
        {
          "internalType": "address",
          "name": "",
          "type": "address"
        }
      ],
      "stateMutability": "view",
      "type": "function"
    },
    {
      "inputs": [],
      "name": "owner",
      "outputs": [
        {
          "internalType": "address",
          "name": "",
          "type": "address"
        }
      ],
      "stateMutability": "view",
      "type": "function"
    },
    {
      "inputs": [],
      "name": "pendingOwner",
      "outputs": [
        {
          "internalType": "address",
          "name": "",
          "type": "address"
        }
      ],
      "stateMutability": "view",
      "type": "function"
    },
    {
      "inputs": [
        {
          "internalType": "address",
          "name": "_jobCreator",
          "type": "address"
        }
      ],
      "name": "postOpsUpdate",
      "outputs": [],
      "stateMutability": "nonpayable",
      "type": "function"
    },
    {
      "inputs": [],
      "name": "proxiableUUID",
      "outputs": [
        {
          "internalType": "bytes32",
          "name": "",
          "type": "bytes32"
        }
      ],
      "stateMutability": "view",
      "type": "function"
    },
    {
      "inputs": [],
      "name": "renounceOwnership",
      "outputs": [],
      "stateMutability": "nonpayable",
      "type": "function"
    },
    {
      "inputs": [
        {
          "internalType": "address",
          "name": "newOwner",
          "type": "address"
        }
      ],
      "name": "transferOwnership",
      "outputs": [],
      "stateMutability": "nonpayable",
      "type": "function"
    },
    {
      "inputs": [
        {
          "internalType": "address",
          "name": "_jobCreator",
          "type": "address"
        }
      ],
      "name": "transferToWhisperRouter",
      "outputs": [],
      "stateMutability": "nonpayable",
      "type": "function"
    },
    {
      "inputs": [
        {
          "internalType": "address",
          "name": "newImplementation",
          "type": "address"
        },
        {
          "internalType": "bytes",
          "name": "data",
          "type": "bytes"
        }
      ],
      "name": "upgradeToAndCall",
      "outputs": [],
      "stateMutability": "payable",
      "type": "function"
    }
  ],
  "bytecode": "0x60a0806040523461002a5730608052611050908161003082396080518181816109fd0152610e0a0152f35b600080fdfe60406080815260048036101561001457600080fd5b600091823560e01c9182632eb5b98b14610c575782634f1ef28614610a4f57826352d1902d146109e85782636d0501f6146109c0578263715018a61461095157826377924d1f146107e557826379ba50971461078e5782638da5cb5b14610758578263924b5a79146104b7578263ad3cb1cc14610418578263b18008d21461036c578263c4d66de81461018157508163e30c397814610147575063f2fde38b146100bd57600080fd5b34610144576020366003190112610144576100d6610cf6565b6100de610dc7565b600080516020610ffb83398151915280546001600160a01b0319166001600160a01b03928316908117909155600080516020610f5b833981519152549091167f38d16b8cac22d99fc7c124b9cd0de2d3fa1faef420bfe791d8c362d765e227008380a380f35b80fd5b90503461017d578160031936011261017d57600080516020610ffb8339815191525490516001600160a01b039091168152602090f35b5080fd5b909150346103685760203660031901126103685761019d610cf6565b600080516020610fdb8339815191528054909281851c60ff16159290916001600160401b03811680159081610360575b6001149081610356575b15908161034d575b5061033d576001600160401b03198116600117855583610322575b50610203610e00565b61020b610ec8565b610213610ec8565b61021b610ec8565b610223610ec8565b331561030b5761023233610e6c565b61023a610ec8565b610242610ec8565b6001600080516020610fbb833981519152556001600160a01b03169081156102c7575084546001600160a01b03191617845560025461028090610da2565b60025561028b578280f35b805460ff60401b1916905551600181527fc7f505b2f371ae2175ee4913f4499e1f2633a7b5936321eed1cdaeb6115181d290602090a138808280f35b6064906020865191636e38ef5d60e11b8352820152601d60248201527f5a65726f20616464726573732063616e6e6f74206265207061737365640000006044820152fd5b8451631e4fbdf760e01b8152808301879052602490fd5b6001600160481b0319166001600160401b01178455386101fa565b855163f92ee8a960e01b81528390fd5b905015386101df565b303b1591506101d7565b8591506101cd565b8280fd5b83823461017d57602036600319011261017d57610387610cf6565b8282805161039481610d11565b828152826020820152015260018060a01b031682526001602052808220918151926103be84610d11565b6103cc60ff82541685610d80565b60026001820154916020860192835201549183850192835283519451908682101561040557506060955084525160208401525190820152f35b634e487b7160e01b815260218752602490fd5b90915034610368578260031936011261036857815190818301906001600160401b038211838310176104a45750825260058152602090640352e302e360dc1b6020820152825193849260208452825192836020860152825b84811061048e57505050828201840152601f01601f19168101030190f35b8181018301518882018801528795508201610470565b634e487b7160e01b855260419052602484fd5b8390606036600319011261017d5780356001600160401b03808211610754573660238301121561075457818301359081116107545760249081830192828236920101116107505781359260443594600080516020610fbb8339815191529560028754146107415760028755851561070c5780156106d25780340361069e57338852600160205260ff89892054168281101561068c5760011461064d57888661059160a060025484519384918760208401978c8c8a378c85019360208501528301524260608301526080820152036080810184520182610d42565b519020948951926105a184610d11565b6001845260208401918783528b8501938452338b5260016020528b8b209451918083101561063c5750506001999a94927fc13f52053f98cf2f818b8faecad9f3d5dbb36bda088ca07107d5aa135932aa8896949260029260ff80198654169116178455518b84015551910155610618600254610da2565b60025581835192839283378101898152039020928151908152336020820152a35580f35b634e487b7160e01b8c52602190528afd5b8851636e38ef5d60e11b815260208184015260198187015278141c995d9a5bdd5cc8129bd888139bdd08199a5b9a5cda1959603a1b6044820152606490fd5b634e487b7160e01b8952602183528589fd5b8851636e38ef5d60e11b8152602081840152600e818701526d08ceadcc8e640dad2e6dac2e8c6d60931b6044820152606490fd5b8851636e38ef5d60e11b815260208184015260148187015273125b9d985b1a5908125b9c1d5d08105b5bdd5b9d60621b6044820152606490fd5b88516305c57e8360e01b8152602081840152600f818701526e125b9d985b1a590810da185a5b9259608a1b6044820152606490fd5b508751633ee5aeb560e01b8152fd5b8480fd5b8380fd5b83823461017d578160031936011261017d57600080516020610f5b8339815191525490516001600160a01b039091168152602090f35b915034610368578260031936011261036857600080516020610ffb83398151915254336001600160a01b03909116036107ce57826107cb33610e6c565b80f35b60249250519063118cdaa760e01b82523390820152fd5b9091503461036857602036600319011261036857610801610cf6565b610809610dc7565b6001600160a01b03908116845260016020528284208351929060029061082e85610d11565b61083c60ff82541686610d80565b6001810154602086015201549284810193845280518281101561093e57600214908115610917575b506108c6575083808080938154168551908282156108bd575bf1156108b2577f7c834a8a637af7c8ad16699142b1a7b82ff8ac97de948638b65a6c9458228e9091602091519051908152a180f35b5051903d90823e3d90fd5b506108fc61087d565b8351636e38ef5d60e11b815290819061091390820160609060208152601e60208201527f4e6f206c617465737420696e746572616374696f6e207265717569726564000060408201520190565b0390fd5b9050518181101561092b5760031438610864565b634e487b7160e01b865260218252602486fd5b634e487b7160e01b875260218352602487fd5b833461014457806003193601126101445761096a610dc7565b600080516020610ffb83398151915280546001600160a01b0319908116909155600080516020610f5b8339815191528054918216905581906001600160a01b0316600080516020610f9b8339815191528280a380f35b83823461017d578160031936011261017d57905490516001600160a01b039091168152602090f35b908334610144578060031936011261014457507f00000000000000000000000000000000000000000000000000000000000000006001600160a01b03163003610a425760209051600080516020610f7b8339815191528152f35b5163703e46dd60e11b8152fd5b91508060031936011261036857610a64610cf6565b60249390919084356001600160401b03811161017d573660238201121561017d5780850135610a9281610d65565b94610a9f85519687610d42565b81865260209182870193368a8383010111610c53578186928b869301873788010152610ac9610e00565b610ad1610dc7565b803b15610c435784516352d1902d60e01b81526001600160a01b038216969083818a818b5afa869181610c10575b50610b1b575050505050505191634c9c8ce360e01b8352820152fd5b9088888894938c600080516020610f7b83398151915291828103610bfb5750853b15610be7575080546001600160a01b031916821790558451889392917fbc7cd75a20ee27fd9adebab32041f755214dbc6bffa90cc0225b39da2e5c2d3b8580a2825115610bc9575050610bbb9582915190845af4913d15610bbf573d610bad610ba482610d65565b92519283610d42565b81528581943d92013e610ef7565b5080f35b5060609250610ef7565b955095505050505034610bdb57505080f35b63b398979f60e01b8152fd5b8651634c9c8ce360e01b8152808501849052fd5b8751632a87526960e21b815280860191909152fd5b9091508481813d8311610c3c575b610c288183610d42565b81010312610c3857519038610aff565b8680fd5b503d610c1e565b845163340aafcd60e11b81528790fd5b8580fd5b9091503461036857602036600319011261036857610c73610cf6565b610c7b610dc7565b6001600160a01b0316835260016020528183208054909160ff82168181101561092b5760028114908115610ceb575b506108c6575060ff191660021781556001015490519081527fe9adb25745b994166e7820b9542cf7115917437938b5197b0964875dd138ff3790602090a180f35b600391501438610caa565b600435906001600160a01b0382168203610d0c57565b600080fd5b606081019081106001600160401b03821117610d2c57604052565b634e487b7160e01b600052604160045260246000fd5b601f909101601f19168101906001600160401b03821190821017610d2c57604052565b6001600160401b038111610d2c57601f01601f191660200190565b6004821015610d8c5752565b634e487b7160e01b600052602160045260246000fd5b6000198114610db15760010190565b634e487b7160e01b600052601160045260246000fd5b600080516020610f5b833981519152546001600160a01b03163303610de857565b60405163118cdaa760e01b8152336004820152602490fd5b6001600160a01b037f00000000000000000000000000000000000000000000000000000000000000008116308114918215610e50575b5050610e3e57565b60405163703e46dd60e11b8152600490fd5b600080516020610f7b8339815191525416141590503880610e36565b600080516020610ffb83398151915280546001600160a01b0319908116909155600080516020610f5b83398151915280549182166001600160a01b039384169081179091559116600080516020610f9b833981519152600080a3565b60ff600080516020610fdb8339815191525460401c1615610ee557565b604051631afcd79f60e31b8152600490fd5b90610f1e5750805115610f0c57602081519101fd5b60405163d6bda27560e01b8152600490fd5b81511580610f51575b610f2f575090565b604051639996b31560e01b81526001600160a01b039091166004820152602490fd5b50803b15610f2756fe9016d09d72d40fdae2fd8ceac6b6234c7706214fd39c1cd1e609a0528c199300360894a13ba1a3210667c828492db98dca3e2076cc3735a920a3ca505d382bbc8be0079c531659141344cd1fd0a4f28419497f9722a3daafe3b4186f6b6457e09b779b17422d0df92223018b32b4d1fa46e071723d6817e2486d003becc55f00f0c57e16840df040f15088dc2f81fe391c3923bec73e23a9662efc9c229c6a00237e158222e3e6968b72b9db0d8043aacf074ad9f650f0d1606b4d82ee432c00a2646970667358221220d06adcf04a07062e2c3a2c95b0a037d8aff4993564edd714e05676804b2c492c64736f6c63430008180033",
  "linkReferences": {},
  "deployedLinkReferences": {}
}