{
  "_format": "hh-sol-artifact-1",
  "contractName": "Dealer",
  "sourceName": "src/L2Contracts/Dealer.sol",
  "abi": [
    {
      "inputs": [
        {
          "internalType": "address",
          "name": "target",
          "type": "address"
        }
      ],
      "name": "AddressEmptyCode",
      "type": "error"
    },
    {
      "inputs": [
        {
          "internalType": "string",
          "name": "reason",
          "type": "string"
        }
      ],
      "name": "AuthenticationFailed",
      "type": "error"
    },
    {
      "inputs": [
        {
          "internalType": "address",
          "name": "implementation",
          "type": "address"
        }
      ],
      "name": "ERC1967InvalidImplementation",
      "type": "error"
    },
    {
      "inputs": [],
      "name": "ERC1967NonPayable",
      "type": "error"
    },
    {
      "inputs": [],
      "name": "FailedCall",
      "type": "error"
    },
    {
      "inputs": [
        {
          "internalType": "string",
          "name": "reason",
          "type": "string"
        }
      ],
      "name": "InvalidChainId",
      "type": "error"
    },
    {
      "inputs": [],
      "name": "InvalidImplementation",
      "type": "error"
    },
    {
      "inputs": [],
      "name": "InvalidInitialization",
      "type": "error"
    },
    {
      "inputs": [
        {
          "internalType": "string",
          "name": "reason",
          "type": "string"
        }
      ],
      "name": "InvalidInteraction",
      "type": "error"
    },
    {
      "inputs": [],
      "name": "NotInitializing",
      "type": "error"
    },
    {
      "inputs": [
        {
          "internalType": "address",
          "name": "owner",
          "type": "address"
        }
      ],
      "name": "OwnableInvalidOwner",
      "type": "error"
    },
    {
      "inputs": [
        {
          "internalType": "address",
          "name": "account",
          "type": "address"
        }
      ],
      "name": "OwnableUnauthorizedAccount",
      "type": "error"
    },
    {
      "inputs": [],
      "name": "ReentrancyGuardReentrantCall",
      "type": "error"
    },
    {
      "inputs": [],
      "name": "UUPSUnauthorizedCallContext",
      "type": "error"
    },
    {
      "inputs": [
        {
          "internalType": "bytes32",
          "name": "slot",
          "type": "bytes32"
        }
      ],
      "name": "UUPSUnsupportedProxiableUUID",
      "type": "error"
    },
    {
      "anonymous": false,
      "inputs": [
        {
          "indexed": false,
          "internalType": "uint256",
          "name": "_amount",
          "type": "uint256"
        }
      ],
      "name": "FundsTransferredToMediator",
      "type": "event"
    },
    {
      "anonymous": false,
      "inputs": [
        {
          "indexed": false,
          "internalType": "uint64",
          "name": "version",
          "type": "uint64"
        }
      ],
      "name": "Initialized",
      "type": "event"
    },
    {
      "anonymous": false,
      "inputs": [
        {
          "indexed": true,
          "internalType": "string",
          "name": "_backendDigest",
          "type": "string"
        },
        {
          "indexed": false,
          "internalType": "bytes32",
          "name": "_jobDigest",
          "type": "bytes32"
        },
        {
          "indexed": true,
          "internalType": "uint256",
          "name": "_chainId",
          "type": "uint256"
        },
        {
          "indexed": false,
          "internalType": "address",
          "name": "_jobCreator",
          "type": "address"
        }
      ],
      "name": "L3Interaction",
      "type": "event"
    },
    {
      "anonymous": false,
      "inputs": [
        {
          "indexed": false,
          "internalType": "bytes32",
          "name": "_jobId",
          "type": "bytes32"
        }
      ],
      "name": "L3JobCompleted",
      "type": "event"
    },
    {
      "anonymous": false,
      "inputs": [
        {
          "indexed": true,
          "internalType": "address",
          "name": "previousOwner",
          "type": "address"
        },
        {
          "indexed": true,
          "internalType": "address",
          "name": "newOwner",
          "type": "address"
        }
      ],
      "name": "OwnershipTransferStarted",
      "type": "event"
    },
    {
      "anonymous": false,
      "inputs": [
        {
          "indexed": true,
          "internalType": "address",
          "name": "previousOwner",
          "type": "address"
        },
        {
          "indexed": true,
          "internalType": "address",
          "name": "newOwner",
          "type": "address"
        }
      ],
      "name": "OwnershipTransferred",
      "type": "event"
    },
    {
      "anonymous": false,
      "inputs": [
        {
          "indexed": true,
          "internalType": "address",
          "name": "implementation",
          "type": "address"
        }
      ],
      "name": "Upgraded",
      "type": "event"
    },
    {
      "inputs": [],
      "name": "UPGRADE_INTERFACE_VERSION",
      "outputs": [
        {
          "internalType": "string",
          "name": "",
          "type": "string"
        }
      ],
      "stateMutability": "view",
      "type": "function"
    },
    {
      "inputs": [],
      "name": "acceptOwnership",
      "outputs": [],
      "stateMutability": "nonpayable",
      "type": "function"
    },
    {
      "inputs": [
        {
          "internalType": "string",
          "name": "_backendDigest",
          "type": "string"
        },
        {
          "internalType": "uint256",
          "name": "_privateChainId",
          "type": "uint256"
        },
        {
          "internalType": "uint256",
          "name": "_totalAmount",
          "type": "uint256"
        }
      ],
      "name": "depositAndExec",
      "outputs": [],
      "stateMutability": "payable",
      "type": "function"
    },
    {
      "inputs": [
        {
          "internalType": "address",
          "name": "_creator",
          "type": "address"
        }
      ],
      "name": "getJobDetails",
      "outputs": [
        {
          "components": [
            {
              "internalType": "enum IDealer.JobStatus",
              "name": "status",
              "type": "uint8"
            },
            {
              "internalType": "bytes32",
              "name": "digest",
              "type": "bytes32"
            },
            {
              "internalType": "uint256",
              "name": "value",
              "type": "uint256"
            }
          ],
          "internalType": "struct IDealer.Job",
          "name": "",
          "type": "tuple"
        }
      ],
      "stateMutability": "view",
      "type": "function"
    },
    {
      "inputs": [
        {
          "internalType": "address",
          "name": "_mediator",
          "type": "address"
        },
        {
          "internalType": "address",
          "name": "_stableCoin",
          "type": "address"
        }
      ],
      "name": "initialize",
      "outputs": [],
      "stateMutability": "nonpayable",
      "type": "function"
    },
    {
      "inputs": [],
      "name": "mediator",
      "outputs": [
        {
          "internalType": "address",
          "name": "",
          "type": "address"
        }
      ],
      "stateMutability": "view",
      "type": "function"
    },
    {
      "inputs": [],
      "name": "owner",
      "outputs": [
        {
          "internalType": "address",
          "name": "",
          "type": "address"
        }
      ],
      "stateMutability": "view",
      "type": "function"
    },
    {
      "inputs": [],
      "name": "pendingOwner",
      "outputs": [
        {
          "internalType": "address",
          "name": "",
          "type": "address"
        }
      ],
      "stateMutability": "view",
      "type": "function"
    },
    {
      "inputs": [
        {
          "internalType": "address",
          "name": "_jobCreator",
          "type": "address"
        }
      ],
      "name": "postOpsUpdate",
      "outputs": [],
      "stateMutability": "nonpayable",
      "type": "function"
    },
    {
      "inputs": [],
      "name": "proxiableUUID",
      "outputs": [
        {
          "internalType": "bytes32",
          "name": "",
          "type": "bytes32"
        }
      ],
      "stateMutability": "view",
      "type": "function"
    },
    {
      "inputs": [],
      "name": "renounceOwnership",
      "outputs": [],
      "stateMutability": "nonpayable",
      "type": "function"
    },
    {
      "inputs": [],
      "name": "stableCoin",
      "outputs": [
        {
          "internalType": "contract IERC20",
          "name": "",
          "type": "address"
        }
      ],
      "stateMutability": "view",
      "type": "function"
    },
    {
      "inputs": [
        {
          "internalType": "address",
          "name": "newOwner",
          "type": "address"
        }
      ],
      "name": "transferOwnership",
      "outputs": [],
      "stateMutability": "nonpayable",
      "type": "function"
    },
    {
      "inputs": [
        {
          "internalType": "address",
          "name": "_jobCreator",
          "type": "address"
        }
      ],
      "name": "transferToWhisperRouter",
      "outputs": [],
      "stateMutability": "nonpayable",
      "type": "function"
    },
    {
      "inputs": [
        {
          "internalType": "address",
          "name": "newImplementation",
          "type": "address"
        },
        {
          "internalType": "bytes",
          "name": "data",
          "type": "bytes"
        }
      ],
      "name": "upgradeToAndCall",
      "outputs": [],
      "stateMutability": "payable",
      "type": "function"
    }
  ],
  "bytecode": "0x60a0806040523461002a57306080526110aa9081610030823960805181818161084a0152610e640152f35b600080fdfe60406080815260048036101561001457600080fd5b600091823560e01c9182632eb5b98b14610cb1578263485cc95514610aa45782634f1ef2861461089c57826352d1902d146108355782636d0501f61461080d578263715018a61461079e57826377924d1f1461063257826379ba5097146105db5782638da5cb5b146105a5578263924b5a7914610304578263992642e5146102db578263ad3cb1cc14610238578263b18008d21461018c57508163e30c397814610152575063f2fde38b146100c857600080fd5b3461014f57602036600319011261014f576100e1610d50565b6100e9610e21565b60008051602061105583398151915280546001600160a01b0319166001600160a01b03928316908117909155600080516020610fb5833981519152549091167f38d16b8cac22d99fc7c124b9cd0de2d3fa1faef420bfe791d8c362d765e227008380a380f35b80fd5b9050346101885781600319360112610188576000805160206110558339815191525490516001600160a01b039091168152602090f35b5080fd5b838234610188576020366003190112610188576101a7610d50565b828280516101b481610d6b565b828152826020820152015260018060a01b031682526001602052808220918151926101de84610d6b565b6101ec60ff82541685610dff565b60026001820154916020860192835201549183850192835283519451908682101561022557506060955084525160208401525190820152f35b634e487b7160e01b815260218752602490fd5b909150346102d757826003193601126102d757815190818301906001600160401b038211838310176102c45750825260058152602090640352e302e360dc1b6020820152825193849260208452825192836020860152825b8481106102ae57505050828201840152601f01601f19168101030190f35b8181018301518882018801528795508201610290565b634e487b7160e01b855260419052602484fd5b8280fd5b83823461018857816003193601126101885760035490516001600160a01b039091168152602090f35b839060603660031901126101885780356001600160401b038082116105a157366023830112156105a157818301359081116105a157602490818301928282369201011161059d578135926044359460008051602061101583398151915295600287541461058e5760028755851561055957801561051f578034036104eb57338852600160205260ff8989205416828110156104d95760011461049a5788866103de60a060025484519384918760208401978c8c8a378c85019360208501528301524260608301526080820152036080810184520182610d9c565b519020948951926103ee84610d6b565b6001845260208401918783528b8501938452338b5260016020528b8b20945191808310156104895750506001999a94927fc13f52053f98cf2f818b8faecad9f3d5dbb36bda088ca07107d5aa135932aa8896949260029260ff80198654169116178455518b84015551910155610465600254610dda565b60025581835192839283378101898152039020928151908152336020820152a35580f35b634e487b7160e01b8c52602190528afd5b8851636e38ef5d60e11b815260208184015260198187015278141c995d9a5bdd5cc8129bd888139bdd08199a5b9a5cda1959603a1b6044820152606490fd5b634e487b7160e01b8952602183528589fd5b8851636e38ef5d60e11b8152602081840152600e818701526d08ceadcc8e640dad2e6dac2e8c6d60931b6044820152606490fd5b8851636e38ef5d60e11b815260208184015260148187015273125b9d985b1a5908125b9c1d5d08105b5bdd5b9d60621b6044820152606490fd5b88516305c57e8360e01b8152602081840152600f818701526e125b9d985b1a590810da185a5b9259608a1b6044820152606490fd5b508751633ee5aeb560e01b8152fd5b8480fd5b8380fd5b838234610188578160031936011261018857600080516020610fb58339815191525490516001600160a01b039091168152602090f35b9150346102d757826003193601126102d75760008051602061105583398151915254336001600160a01b039091160361061b578261061833610ec6565b80f35b60249250519063118cdaa760e01b82523390820152fd5b909150346102d75760203660031901126102d75761064e610d50565b610656610e21565b6001600160a01b03908116845260016020528284208351929060029061067b85610d6b565b61068960ff82541686610dff565b6001810154602086015201549284810193845280518281101561078b57600214908115610764575b506107135750838080809381541685519082821561070a575bf1156106ff577f7c834a8a637af7c8ad16699142b1a7b82ff8ac97de948638b65a6c9458228e9091602091519051908152a180f35b5051903d90823e3d90fd5b506108fc6106ca565b8351636e38ef5d60e11b815290819061076090820160609060208152601e60208201527f4e6f206c617465737420696e746572616374696f6e207265717569726564000060408201520190565b0390fd5b9050518181101561077857600314386106b1565b634e487b7160e01b865260218252602486fd5b634e487b7160e01b875260218352602487fd5b833461014f578060031936011261014f576107b7610e21565b60008051602061105583398151915280546001600160a01b0319908116909155600080516020610fb58339815191528054918216905581906001600160a01b0316600080516020610ff58339815191528280a380f35b838234610188578160031936011261018857905490516001600160a01b039091168152602090f35b90833461014f578060031936011261014f57507f00000000000000000000000000000000000000000000000000000000000000006001600160a01b0316300361088f5760209051600080516020610fd58339815191528152f35b5163703e46dd60e11b8152fd5b9150806003193601126102d7576108b1610d50565b60249390919084356001600160401b038111610188573660238201121561018857808501356108df81610dbf565b946108ec85519687610d9c565b81865260209182870193368a8383010111610aa0578186928b869301873788010152610916610e5a565b61091e610e21565b803b15610a905784516352d1902d60e01b81526001600160a01b038216969083818a818b5afa869181610a5d575b50610968575050505050505191634c9c8ce360e01b8352820152fd5b9088888894938c600080516020610fd583398151915291828103610a485750853b15610a34575080546001600160a01b031916821790558451889392917fbc7cd75a20ee27fd9adebab32041f755214dbc6bffa90cc0225b39da2e5c2d3b8580a2825115610a16575050610a089582915190845af4913d15610a0c573d6109fa6109f182610dbf565b92519283610d9c565b81528581943d92013e610f51565b5080f35b5060609250610f51565b955095505050505034610a2857505080f35b63b398979f60e01b8152fd5b8651634c9c8ce360e01b8152808501849052fd5b8751632a87526960e21b815280860191909152fd5b9091508481813d8311610a89575b610a758183610d9c565b81010312610a855751903861094c565b8680fd5b503d610a6b565b845163340aafcd60e11b81528790fd5b8580fd5b909150346102d757816003193601126102d757610abf610d50565b6001600160a01b03916024358381169190829003610aa0576000805160206110358339815191528054909481871c60ff16159490916001600160401b03811680159081610ca9575b6001149081610c9f575b159081610c96575b50610c86576001600160401b03198116600117875585610c6b575b50610b3d610e5a565b610b45610f22565b610b4d610f22565b610b55610f22565b610b5d610f22565b3315610c5457610b6c33610ec6565b610b74610f22565b610b7c610f22565b600160008051602061101583398151915255169081158015610c4c575b610c08575060018060a01b031990818754161786556003541617600355610bc1600254610dda565b600255610bcc578280f35b805460ff60401b1916905551600181527fc7f505b2f371ae2175ee4913f4499e1f2633a7b5936321eed1cdaeb6115181d290602090a138808280f35b6064906020875191636e38ef5d60e11b8352820152601d60248201527f5a65726f20616464726573732063616e6e6f74206265207061737365640000006044820152fd5b508215610b99565b8651631e4fbdf760e01b8152808401899052602490fd5b6001600160481b0319166001600160401b0117865538610b34565b875163f92ee8a960e01b81528490fd5b90501538610b19565b303b159150610b11565b879150610b07565b909150346102d75760203660031901126102d757610ccd610d50565b610cd5610e21565b6001600160a01b0316835260016020528183208054909160ff8216818110156107785760028114908115610d45575b50610713575060ff191660021781556001015490519081527fe9adb25745b994166e7820b9542cf7115917437938b5197b0964875dd138ff3790602090a180f35b600391501438610d04565b600435906001600160a01b0382168203610d6657565b600080fd5b606081019081106001600160401b03821117610d8657604052565b634e487b7160e01b600052604160045260246000fd5b601f909101601f19168101906001600160401b03821190821017610d8657604052565b6001600160401b038111610d8657601f01601f191660200190565b6000198114610de95760010190565b634e487b7160e01b600052601160045260246000fd5b6004821015610e0b5752565b634e487b7160e01b600052602160045260246000fd5b600080516020610fb5833981519152546001600160a01b03163303610e4257565b60405163118cdaa760e01b8152336004820152602490fd5b6001600160a01b037f00000000000000000000000000000000000000000000000000000000000000008116308114918215610eaa575b5050610e9857565b60405163703e46dd60e11b8152600490fd5b600080516020610fd58339815191525416141590503880610e90565b60008051602061105583398151915280546001600160a01b0319908116909155600080516020610fb583398151915280549182166001600160a01b039384169081179091559116600080516020610ff5833981519152600080a3565b60ff6000805160206110358339815191525460401c1615610f3f57565b604051631afcd79f60e31b8152600490fd5b90610f785750805115610f6657602081519101fd5b60405163d6bda27560e01b8152600490fd5b81511580610fab575b610f89575090565b604051639996b31560e01b81526001600160a01b039091166004820152602490fd5b50803b15610f8156fe9016d09d72d40fdae2fd8ceac6b6234c7706214fd39c1cd1e609a0528c199300360894a13ba1a3210667c828492db98dca3e2076cc3735a920a3ca505d382bbc8be0079c531659141344cd1fd0a4f28419497f9722a3daafe3b4186f6b6457e09b779b17422d0df92223018b32b4d1fa46e071723d6817e2486d003becc55f00f0c57e16840df040f15088dc2f81fe391c3923bec73e23a9662efc9c229c6a00237e158222e3e6968b72b9db0d8043aacf074ad9f650f0d1606b4d82ee432c00a26469706673582212200299b3c739c56cc3734ee92239556c2ef9609bf58e925b586ce2ed3a1593d02e64736f6c63430008180033",
  "linkReferences": {},
  "deployedLinkReferences": {}
}