{
  "_format": "hh-sol-artifact-1",
  "contractName": "Dealer",
  "sourceName": "src/L2Contracts/Dealer.sol",
  "abi": [
    {
      "inputs": [
        {
          "internalType": "address",
          "name": "target",
          "type": "address"
        }
      ],
      "name": "AddressEmptyCode",
      "type": "error"
    },
    {
      "inputs": [
        {
          "internalType": "string",
          "name": "reason",
          "type": "string"
        }
      ],
      "name": "AuthenticationFailed",
      "type": "error"
    },
    {
      "inputs": [
        {
          "internalType": "address",
          "name": "implementation",
          "type": "address"
        }
      ],
      "name": "ERC1967InvalidImplementation",
      "type": "error"
    },
    {
      "inputs": [],
      "name": "ERC1967NonPayable",
      "type": "error"
    },
    {
      "inputs": [],
      "name": "FailedCall",
      "type": "error"
    },
    {
      "inputs": [
        {
          "internalType": "string",
          "name": "reason",
          "type": "string"
        }
      ],
      "name": "InvalidChainId",
      "type": "error"
    },
    {
      "inputs": [],
      "name": "InvalidImplementation",
      "type": "error"
    },
    {
      "inputs": [],
      "name": "InvalidInitialization",
      "type": "error"
    },
    {
      "inputs": [
        {
          "internalType": "string",
          "name": "reason",
          "type": "string"
        }
      ],
      "name": "InvalidInteraction",
      "type": "error"
    },
    {
      "inputs": [],
      "name": "NotInitializing",
      "type": "error"
    },
    {
      "inputs": [
        {
          "internalType": "address",
          "name": "owner",
          "type": "address"
        }
      ],
      "name": "OwnableInvalidOwner",
      "type": "error"
    },
    {
      "inputs": [
        {
          "internalType": "address",
          "name": "account",
          "type": "address"
        }
      ],
      "name": "OwnableUnauthorizedAccount",
      "type": "error"
    },
    {
      "inputs": [],
      "name": "ReentrancyGuardReentrantCall",
      "type": "error"
    },
    {
      "inputs": [],
      "name": "UUPSUnauthorizedCallContext",
      "type": "error"
    },
    {
      "inputs": [
        {
          "internalType": "bytes32",
          "name": "slot",
          "type": "bytes32"
        }
      ],
      "name": "UUPSUnsupportedProxiableUUID",
      "type": "error"
    },
    {
      "anonymous": false,
      "inputs": [
        {
          "indexed": false,
          "internalType": "uint256",
          "name": "_amount",
          "type": "uint256"
        }
      ],
      "name": "FundsTransferredToMediator",
      "type": "event"
    },
    {
      "anonymous": false,
      "inputs": [
        {
          "indexed": false,
          "internalType": "uint64",
          "name": "version",
          "type": "uint64"
        }
      ],
      "name": "Initialized",
      "type": "event"
    },
    {
      "anonymous": false,
      "inputs": [
        {
          "indexed": true,
          "internalType": "string",
          "name": "_backendDigest",
          "type": "string"
        },
        {
          "indexed": false,
          "internalType": "bytes32",
          "name": "_jobDigest",
          "type": "bytes32"
        },
        {
          "indexed": true,
          "internalType": "uint256",
          "name": "_chainId",
          "type": "uint256"
        },
        {
          "indexed": false,
          "internalType": "address",
          "name": "_jobCreator",
          "type": "address"
        }
      ],
      "name": "L3Interaction",
      "type": "event"
    },
    {
      "anonymous": false,
      "inputs": [
        {
          "indexed": true,
          "internalType": "address",
          "name": "previousOwner",
          "type": "address"
        },
        {
          "indexed": true,
          "internalType": "address",
          "name": "newOwner",
          "type": "address"
        }
      ],
      "name": "OwnershipTransferStarted",
      "type": "event"
    },
    {
      "anonymous": false,
      "inputs": [
        {
          "indexed": true,
          "internalType": "address",
          "name": "previousOwner",
          "type": "address"
        },
        {
          "indexed": true,
          "internalType": "address",
          "name": "newOwner",
          "type": "address"
        }
      ],
      "name": "OwnershipTransferred",
      "type": "event"
    },
    {
      "anonymous": false,
      "inputs": [
        {
          "indexed": true,
          "internalType": "address",
          "name": "implementation",
          "type": "address"
        }
      ],
      "name": "Upgraded",
      "type": "event"
    },
    {
      "inputs": [],
      "name": "UPGRADE_INTERFACE_VERSION",
      "outputs": [
        {
          "internalType": "string",
          "name": "",
          "type": "string"
        }
      ],
      "stateMutability": "view",
      "type": "function"
    },
    {
      "inputs": [],
      "name": "acceptOwnership",
      "outputs": [],
      "stateMutability": "nonpayable",
      "type": "function"
    },
    {
      "inputs": [
        {
          "internalType": "string",
          "name": "_backendDigest",
          "type": "string"
        },
        {
          "internalType": "uint256",
          "name": "_privateChainId",
          "type": "uint256"
        },
        {
          "internalType": "uint256",
          "name": "_totalAmount",
          "type": "uint256"
        }
      ],
      "name": "depositAndExec",
      "outputs": [],
      "stateMutability": "payable",
      "type": "function"
    },
    {
      "inputs": [
        {
          "internalType": "address",
          "name": "_creator",
          "type": "address"
        }
      ],
      "name": "getJobDetails",
      "outputs": [
        {
          "components": [
            {
              "internalType": "bool",
              "name": "status",
              "type": "bool"
            },
            {
              "internalType": "bytes32",
              "name": "digest",
              "type": "bytes32"
            },
            {
              "internalType": "uint256",
              "name": "value",
              "type": "uint256"
            }
          ],
          "internalType": "struct IDealer.Job",
          "name": "",
          "type": "tuple"
        }
      ],
      "stateMutability": "view",
      "type": "function"
    },
    {
      "inputs": [
        {
          "internalType": "address",
          "name": "_mediator",
          "type": "address"
        },
        {
          "internalType": "address",
          "name": "_stableCoin",
          "type": "address"
        }
      ],
      "name": "initialize",
      "outputs": [],
      "stateMutability": "nonpayable",
      "type": "function"
    },
    {
      "inputs": [],
      "name": "mediator",
      "outputs": [
        {
          "internalType": "address",
          "name": "",
          "type": "address"
        }
      ],
      "stateMutability": "view",
      "type": "function"
    },
    {
      "inputs": [],
      "name": "owner",
      "outputs": [
        {
          "internalType": "address",
          "name": "",
          "type": "address"
        }
      ],
      "stateMutability": "view",
      "type": "function"
    },
    {
      "inputs": [],
      "name": "pendingOwner",
      "outputs": [
        {
          "internalType": "address",
          "name": "",
          "type": "address"
        }
      ],
      "stateMutability": "view",
      "type": "function"
    },
    {
      "inputs": [],
      "name": "proxiableUUID",
      "outputs": [
        {
          "internalType": "bytes32",
          "name": "",
          "type": "bytes32"
        }
      ],
      "stateMutability": "view",
      "type": "function"
    },
    {
      "inputs": [],
      "name": "renounceOwnership",
      "outputs": [],
      "stateMutability": "nonpayable",
      "type": "function"
    },
    {
      "inputs": [],
      "name": "stableCoin",
      "outputs": [
        {
          "internalType": "contract IERC20",
          "name": "",
          "type": "address"
        }
      ],
      "stateMutability": "view",
      "type": "function"
    },
    {
      "inputs": [
        {
          "internalType": "address",
          "name": "newOwner",
          "type": "address"
        }
      ],
      "name": "transferOwnership",
      "outputs": [],
      "stateMutability": "nonpayable",
      "type": "function"
    },
    {
      "inputs": [
        {
          "internalType": "address",
          "name": "_jobCreator",
          "type": "address"
        }
      ],
      "name": "transferToWhisperRouter",
      "outputs": [],
      "stateMutability": "nonpayable",
      "type": "function"
    },
    {
      "inputs": [
        {
          "internalType": "address",
          "name": "newImplementation",
          "type": "address"
        },
        {
          "internalType": "bytes",
          "name": "data",
          "type": "bytes"
        }
      ],
      "name": "upgradeToAndCall",
      "outputs": [],
      "stateMutability": "payable",
      "type": "function"
    }
  ],
  "bytecode": "0x60a0806040523461002a5730608052610ebe9081610030823960805181818161077f0152610c3f0152f35b600080fdfe60806040908082526004918236101561001757600080fd5b600092833560e01c928363485cc955146109d9575082634f1ef286146107d157826352d1902d1461076a5782636d0501f614610742578263715018a6146106d357826377924d1f146105c657826379ba50971461056f5782638da5cb5b14610539578263924b5a79146102d8578263992642e5146102af578263ad3cb1cc1461020c57508163b18008d214610185578163e30c39781461014b575063f2fde38b146100c157600080fd5b34610148576020366003190112610148576100da610b86565b6100e2610ca1565b600080516020610e6983398151915280546001600160a01b0319166001600160a01b03928316908117909155600080516020610dc9833981519152549091167f38d16b8cac22d99fc7c124b9cd0de2d3fa1faef420bfe791d8c362d765e227008380a380f35b80fd5b905034610181578160031936011261018157600080516020610e698339815191525490516001600160a01b039091168152602090f35b5080fd5b90503461018157602036600319011261018157806060926101a4610b86565b818380516101b181610ba1565b828152826020820152015260018060a01b031681526001602052209080516101d881610ba1565b60ff835416151592838252826002600183015492602085019384520154920191825282519384525160208401525190820152f35b909150346102ab57826003193601126102ab57815190818301906001600160401b038211838310176102985750825260058152602090640352e302e360dc1b6020820152825193849260208452825192836020860152825b84811061028257505050828201840152601f01601f19168101030190f35b8181018301518882018801528795508201610264565b634e487b7160e01b855260419052602484fd5b8280fd5b83823461018157816003193601126101815760035490516001600160a01b039091168152602090f35b83906060366003190112610181576001600160401b0381358181116105355736602382011215610535578083013591821161053557602490818101908284369201011161053157813592604435916002600080516020610e2983398151915296818854146105235781885586156104ee5784156104b457843403610480573389526020956001875260ff8b8b20541615610441575050917fc13f52053f98cf2f818b8faecad9f3d5dbb36bda088ca07107d5aa135932aa8893918387876103d260a060019d9e98548951938491818301968a8a89378a8401928301528a8c8301524260608301526080820152036080810184520182610bd2565b51902093818651916103e383610ba1565b8d83528d888b8501918983528186019384523381528f8d52209351151560ff80198654169116178455518d8401555191015561041f8154610c10565b9055818451928392833781018a81520390209382519182523390820152a35580f35b8a51636e38ef5d60e11b815291820187905260199082015278141c995d9a5bdd5cc8129bd888139bdd08199a5b9a5cda1959603a1b6044820152606490fd5b606490600e8760208d5193636e38ef5d60e11b85528401528201526d08ceadcc8e640dad2e6dac2e8c6d60931b6044820152fd5b60649060148760208d5193636e38ef5d60e11b855284015282015273125b9d985b1a5908125b9c1d5d08105b5bdd5b9d60621b6044820152fd5b606490600f8760208d51936305c57e8360e01b85528401528201526e125b9d985b1a590810da185a5b9259608a1b6044820152fd5b8951633ee5aeb560e01b8152fd5b8480fd5b8380fd5b838234610181578160031936011261018157600080516020610dc98339815191525490516001600160a01b039091168152602090f35b9150346102ab57826003193601126102ab57600080516020610e6983398151915254336001600160a01b03909116036105af57826105ac33610cda565b80f35b60249250519063118cdaa760e01b82523390820152fd5b909150346102ab5760203660031901126102ab576105e2610b86565b6105ea610ca1565b6001600160a01b03908116845260016020819052838520845193919061060f85610ba1565b85600260ff835416151592838852848101546020890152015495019485521461068f57508380808093815416855190828215610686575bf11561067b577f7c834a8a637af7c8ad16699142b1a7b82ff8ac97de948638b65a6c9458228e9091602091519051908152a180f35b5051903d90823e3d90fd5b506108fc610646565b6064906020855191636e38ef5d60e11b8352820152601e60248201527f4e6f206c617465737420696e746572616374696f6e20726571756972656400006044820152fd5b83346101485780600319360112610148576106ec610ca1565b600080516020610e6983398151915280546001600160a01b0319908116909155600080516020610dc98339815191528054918216905581906001600160a01b0316600080516020610e098339815191528280a380f35b838234610181578160031936011261018157905490516001600160a01b039091168152602090f35b908334610148578060031936011261014857507f00000000000000000000000000000000000000000000000000000000000000006001600160a01b031630036107c45760209051600080516020610de98339815191528152f35b5163703e46dd60e11b8152fd5b9150806003193601126102ab576107e6610b86565b60249390919084356001600160401b0381116101815736602382011215610181578085013561081481610bf5565b9461082185519687610bd2565b81865260209182870193368a83830101116109d5578186928b86930187378801015261084b610c35565b610853610ca1565b803b156109c55784516352d1902d60e01b81526001600160a01b038216969083818a818b5afa869181610992575b5061089d575050505050505191634c9c8ce360e01b8352820152fd5b9088888894938c600080516020610de98339815191529182810361097d5750853b15610969575080546001600160a01b031916821790558451889392917fbc7cd75a20ee27fd9adebab32041f755214dbc6bffa90cc0225b39da2e5c2d3b8580a282511561094b57505061093d9582915190845af4913d15610941573d61092f61092682610bf5565b92519283610bd2565b81528581943d92013e610d65565b5080f35b5060609250610d65565b95509550505050503461095d57505080f35b63b398979f60e01b8152fd5b8651634c9c8ce360e01b8152808501849052fd5b8751632a87526960e21b815280860191909152fd5b9091508481813d83116109be575b6109aa8183610bd2565b810103126109ba57519038610881565b8680fd5b503d6109a0565b845163340aafcd60e11b81528790fd5b8580fd5b849350346105355782600319360112610535576109f4610b86565b6024356001600160a01b0381811692918390036109ba57600080516020610e4983398151915294855460ff81891c16159560018060401b03821680159081610b7e575b6001149081610b74575b159081610b6b575b50610b5d57506001600160401b03198116600117875585610b42575b50610a6e610c35565b610a76610d36565b610a7e610d36565b610a86610d36565b610a8e610d36565b3315610b2b5750610a9e33610cda565b610aa6610d36565b610aae610d36565b6001600080516020610e298339815191525560018060a01b03199116818754161786556003541617600355610ae4600254610c10565b600255610aef578280f35b805460ff60401b1916905551600181527fc7f505b2f371ae2175ee4913f4499e1f2633a7b5936321eed1cdaeb6115181d290602090a181808280f35b8651631e4fbdf760e01b8152908101889052602490fd5b6001600160481b0319166001600160401b0117865588610a65565b63f92ee8a960e01b81529050fd5b9050158b610a49565b303b159150610a41565b889150610a37565b600435906001600160a01b0382168203610b9c57565b600080fd5b606081019081106001600160401b03821117610bbc57604052565b634e487b7160e01b600052604160045260246000fd5b601f909101601f19168101906001600160401b03821190821017610bbc57604052565b6001600160401b038111610bbc57601f01601f191660200190565b6000198114610c1f5760010190565b634e487b7160e01b600052601160045260246000fd5b6001600160a01b037f00000000000000000000000000000000000000000000000000000000000000008116308114918215610c85575b5050610c7357565b60405163703e46dd60e11b8152600490fd5b600080516020610de98339815191525416141590503880610c6b565b600080516020610dc9833981519152546001600160a01b03163303610cc257565b60405163118cdaa760e01b8152336004820152602490fd5b600080516020610e6983398151915280546001600160a01b0319908116909155600080516020610dc983398151915280549182166001600160a01b039384169081179091559116600080516020610e09833981519152600080a3565b60ff600080516020610e498339815191525460401c1615610d5357565b604051631afcd79f60e31b8152600490fd5b90610d8c5750805115610d7a57602081519101fd5b60405163d6bda27560e01b8152600490fd5b81511580610dbf575b610d9d575090565b604051639996b31560e01b81526001600160a01b039091166004820152602490fd5b50803b15610d9556fe9016d09d72d40fdae2fd8ceac6b6234c7706214fd39c1cd1e609a0528c199300360894a13ba1a3210667c828492db98dca3e2076cc3735a920a3ca505d382bbc8be0079c531659141344cd1fd0a4f28419497f9722a3daafe3b4186f6b6457e09b779b17422d0df92223018b32b4d1fa46e071723d6817e2486d003becc55f00f0c57e16840df040f15088dc2f81fe391c3923bec73e23a9662efc9c229c6a00237e158222e3e6968b72b9db0d8043aacf074ad9f650f0d1606b4d82ee432c00a26469706673582212209b83272f6a33b723ff4e5651b0848726122ff63cb3b74d15054a11e0c65ca83b64736f6c63430008180033",
  "linkReferences": {},
  "deployedLinkReferences": {}
}